{
  "contractName": "LandRegistry",
  "abi": [
    {
      "inputs": [],
      "payable": false,
      "stateMutability": "nonpayable",
      "type": "constructor"
    },
    {
      "constant": true,
      "inputs": [
        {
          "internalType": "uint256",
          "name": "",
          "type": "uint256"
        }
      ],
      "name": "land",
      "outputs": [
        {
          "internalType": "address payable",
          "name": "id",
          "type": "address"
        },
        {
          "internalType": "string",
          "name": "ipfsHash",
          "type": "string"
        },
        {
          "internalType": "string",
          "name": "laddress",
          "type": "string"
        },
        {
          "internalType": "uint256",
          "name": "lamount",
          "type": "uint256"
        },
        {
          "internalType": "uint256",
          "name": "key",
          "type": "uint256"
        },
        {
          "internalType": "string",
          "name": "isGovtApproved",
          "type": "string"
        },
        {
          "internalType": "string",
          "name": "isAvailable",
          "type": "string"
        },
        {
          "internalType": "address",
          "name": "requester",
          "type": "address"
        },
        {
          "internalType": "enum LandRegistry.reqStatus",
          "name": "requestStatus",
          "type": "uint8"
        }
      ],
      "payable": false,
      "stateMutability": "view",
      "type": "function"
    },
    {
      "constant": true,
      "inputs": [
        {
          "internalType": "uint256",
          "name": "",
          "type": "uint256"
        }
      ],
      "name": "transfers",
      "outputs": [
        {
          "internalType": "address",
          "name": "buyer",
          "type": "address"
        },
        {
          "internalType": "address payable",
          "name": "seller",
          "type": "address"
        },
        {
          "internalType": "uint256",
          "name": "key",
          "type": "uint256"
        }
      ],
      "payable": false,
      "stateMutability": "view",
      "type": "function"
    },
    {
      "constant": true,
      "inputs": [
        {
          "internalType": "address",
          "name": "",
          "type": "address"
        }
      ],
      "name": "users",
      "outputs": [
        {
          "internalType": "address",
          "name": "userid",
          "type": "address"
        },
        {
          "internalType": "string",
          "name": "uname",
          "type": "string"
        },
        {
          "internalType": "uint256",
          "name": "ucontact",
          "type": "uint256"
        },
        {
          "internalType": "string",
          "name": "uemail",
          "type": "string"
        },
        {
          "internalType": "uint256",
          "name": "upostalCode",
          "type": "uint256"
        },
        {
          "internalType": "string",
          "name": "city",
          "type": "string"
        },
        {
          "internalType": "bool",
          "name": "exist",
          "type": "bool"
        }
      ],
      "payable": false,
      "stateMutability": "view",
      "type": "function"
    },
    {
      "constant": false,
      "inputs": [
        {
          "internalType": "address",
          "name": "user_address",
          "type": "address"
        },
        {
          "internalType": "string",
          "name": "user_name",
          "type": "string"
        },
        {
          "internalType": "uint256",
          "name": "user_contact",
          "type": "uint256"
        },
        {
          "internalType": "string",
          "name": "user_email",
          "type": "string"
        },
        {
          "internalType": "uint256",
          "name": "user_postal_code",
          "type": "uint256"
        },
        {
          "internalType": "string",
          "name": "user_city",
          "type": "string"
        }
      ],
      "name": "addUser",
      "outputs": [
        {
          "internalType": "bool",
          "name": "",
          "type": "bool"
        }
      ],
      "payable": false,
      "stateMutability": "nonpayable",
      "type": "function"
    },
    {
      "constant": true,
      "inputs": [
        {
          "internalType": "address",
          "name": "user_address",
          "type": "address"
        }
      ],
      "name": "getUser",
      "outputs": [
        {
          "internalType": "address",
          "name": "",
          "type": "address"
        },
        {
          "internalType": "string",
          "name": "",
          "type": "string"
        },
        {
          "internalType": "uint256",
          "name": "",
          "type": "uint256"
        },
        {
          "internalType": "string",
          "name": "",
          "type": "string"
        },
        {
          "internalType": "uint256",
          "name": "",
          "type": "uint256"
        },
        {
          "internalType": "string",
          "name": "",
          "type": "string"
        },
        {
          "internalType": "bool",
          "name": "",
          "type": "bool"
        }
      ],
      "payable": false,
      "stateMutability": "view",
      "type": "function"
    },
    {
      "constant": false,
      "inputs": [
        {
          "internalType": "address payable",
          "name": "owner_id",
          "type": "address"
        },
        {
          "internalType": "string",
          "name": "_ipfsHash",
          "type": "string"
        },
        {
          "internalType": "string",
          "name": "_laddress",
          "type": "string"
        },
        {
          "internalType": "uint256",
          "name": "_lamount",
          "type": "uint256"
        },
        {
          "internalType": "uint256",
          "name": "_key",
          "type": "uint256"
        },
        {
          "internalType": "string",
          "name": "status",
          "type": "string"
        },
        {
          "internalType": "string",
          "name": "_isAvailable",
          "type": "string"
        }
      ],
      "name": "Registration",
      "outputs": [
        {
          "internalType": "bool",
          "name": "",
          "type": "bool"
        }
      ],
      "payable": false,
      "stateMutability": "nonpayable",
      "type": "function"
    },
    {
      "constant": true,
      "inputs": [
        {
          "internalType": "string",
          "name": "_laddress",
          "type": "string"
        },
        {
          "internalType": "string",
          "name": "_lamount",
          "type": "string"
        }
      ],
      "name": "computeId",
      "outputs": [
        {
          "internalType": "uint256",
          "name": "",
          "type": "uint256"
        }
      ],
      "payable": false,
      "stateMutability": "view",
      "type": "function"
    },
    {
      "constant": true,
      "inputs": [],
      "name": "viewAssets",
      "outputs": [
        {
          "internalType": "uint256[]",
          "name": "",
          "type": "uint256[]"
        }
      ],
      "payable": false,
      "stateMutability": "view",
      "type": "function"
    },
    {
      "constant": true,
      "inputs": [],
      "name": "Assets",
      "outputs": [
        {
          "internalType": "uint256[]",
          "name": "",
          "type": "uint256[]"
        }
      ],
      "payable": false,
      "stateMutability": "view",
      "type": "function"
    },
    {
      "constant": true,
      "inputs": [],
      "name": "getTransferarr",
      "outputs": [
        {
          "internalType": "uint256[]",
          "name": "",
          "type": "uint256[]"
        }
      ],
      "payable": false,
      "stateMutability": "view",
      "type": "function"
    },
    {
      "constant": true,
      "inputs": [
        {
          "internalType": "uint256",
          "name": "property",
          "type": "uint256"
        }
      ],
      "name": "getTranferInfo",
      "outputs": [
        {
          "internalType": "address",
          "name": "",
          "type": "address"
        },
        {
          "internalType": "address payable",
          "name": "",
          "type": "address"
        }
      ],
      "payable": false,
      "stateMutability": "view",
      "type": "function"
    },
    {
      "constant": false,
      "inputs": [
        {
          "internalType": "uint256",
          "name": "property",
          "type": "uint256"
        }
      ],
      "name": "tranferComplete",
      "outputs": [],
      "payable": false,
      "stateMutability": "nonpayable",
      "type": "function"
    },
    {
      "constant": true,
      "inputs": [
        {
          "internalType": "uint256",
          "name": "id",
          "type": "uint256"
        }
      ],
      "name": "landInfoOwner",
      "outputs": [
        {
          "internalType": "address payable",
          "name": "",
          "type": "address"
        },
        {
          "internalType": "string",
          "name": "",
          "type": "string"
        },
        {
          "internalType": "uint256",
          "name": "",
          "type": "uint256"
        },
        {
          "internalType": "string",
          "name": "",
          "type": "string"
        },
        {
          "internalType": "string",
          "name": "",
          "type": "string"
        },
        {
          "internalType": "address",
          "name": "",
          "type": "address"
        },
        {
          "internalType": "enum LandRegistry.reqStatus",
          "name": "",
          "type": "uint8"
        }
      ],
      "payable": false,
      "stateMutability": "view",
      "type": "function"
    },
    {
      "constant": false,
      "inputs": [
        {
          "internalType": "uint256",
          "name": "_id",
          "type": "uint256"
        },
        {
          "internalType": "string",
          "name": "status",
          "type": "string"
        },
        {
          "internalType": "string",
          "name": "_isAvailable",
          "type": "string"
        }
      ],
      "name": "govtStatus",
      "outputs": [
        {
          "internalType": "bool",
          "name": "",
          "type": "bool"
        }
      ],
      "payable": false,
      "stateMutability": "nonpayable",
      "type": "function"
    },
    {
      "constant": false,
      "inputs": [
        {
          "internalType": "uint256",
          "name": "property",
          "type": "uint256"
        }
      ],
      "name": "makeAvailable",
      "outputs": [],
      "payable": false,
      "stateMutability": "nonpayable",
      "type": "function"
    },
    {
      "constant": false,
      "inputs": [
        {
          "internalType": "uint256",
          "name": "id",
          "type": "uint256"
        }
      ],
      "name": "requstToLandOwner",
      "outputs": [],
      "payable": false,
      "stateMutability": "nonpayable",
      "type": "function"
    },
    {
      "constant": false,
      "inputs": [
        {
          "internalType": "uint256",
          "name": "property",
          "type": "uint256"
        },
        {
          "internalType": "enum LandRegistry.reqStatus",
          "name": "status",
          "type": "uint8"
        }
      ],
      "name": "processRequest",
      "outputs": [],
      "payable": false,
      "stateMutability": "nonpayable",
      "type": "function"
    },
    {
      "constant": false,
      "inputs": [
        {
          "internalType": "uint256",
          "name": "property",
          "type": "uint256"
        }
      ],
      "name": "buyProperty",
      "outputs": [],
      "payable": true,
      "stateMutability": "payable",
      "type": "function"
    },
    {
      "constant": true,
      "inputs": [
        {
          "internalType": "uint256",
          "name": "id",
          "type": "uint256"
        },
        {
          "internalType": "address",
          "name": "user",
          "type": "address"
        }
      ],
      "name": "findId",
      "outputs": [
        {
          "internalType": "uint256",
          "name": "",
          "type": "uint256"
        }
      ],
      "payable": false,
      "stateMutability": "view",
      "type": "function"
    }
  ],
  "bytecode": "0x608060405234801561001057600080fd5b5033600360006101000a81548173ffffffffffffffffffffffffffffffffffffffff021916908373ffffffffffffffffffffffffffffffffffffffff1602179055506137eb806100616000396000f3fe6080604052600436106101145760003560e01c8063861e4656116100a0578063baa39e0511610064578063baa39e05146112b2578063bafa828b146112ed578063f2c7027f14611359578063fce75cba146114da578063fdb10f501461158857610114565b8063861e465614610cb35780639377d71114610f34578063a27664ee14610fe9578063a87430ba14611058578063ae32a3251461124657610114565b8063621fdbb7116100e7578063621fdbb7146107df5780636c5ed93914610a215780636f77926b14610a5c5780636fa830a614610c4a57806375ebd90f14610c7857610114565b80630d2d5dca146101195780630e435f08146101855780633e40e2961461045e57806355d61952146105d1575b600080fd5b34801561012557600080fd5b5061012e6115d0565b6040518080602001828103825283818151815260200191508051906020019060200280838360005b83811015610171578082015181840152602081019050610156565b505050509050019250505060405180910390f35b34801561019157600080fd5b50610444600480360360e08110156101a857600080fd5b81019080803573ffffffffffffffffffffffffffffffffffffffff169060200190929190803590602001906401000000008111156101e557600080fd5b8201836020820111156101f757600080fd5b8035906020019184600183028401116401000000008311171561021957600080fd5b91908080601f016020809104026020016040519081016040528093929190818152602001838380828437600081840152601f19601f8201169050808301925050505050505091929192908035906020019064010000000081111561027c57600080fd5b82018360208201111561028e57600080fd5b803590602001918460018302840111640100000000831117156102b057600080fd5b91908080601f016020809104026020016040519081016040528093929190818152602001838380828437600081840152601f19601f82011690508083019250505050505050919291929080359060200190929190803590602001909291908035906020019064010000000081111561032757600080fd5b82018360208201111561033957600080fd5b8035906020019184600183028401116401000000008311171561035b57600080fd5b91908080601f016020809104026020016040519081016040528093929190818152602001838380828437600081840152601f19601f820116905080830192505050505050509192919290803590602001906401000000008111156103be57600080fd5b8201836020820111156103d057600080fd5b803590602001918460018302840111640100000000831117156103f257600080fd5b91908080601f016020809104026020016040519081016040528093929190818152602001838380828437600081840152601f19601f820116905080830192505050505050509192919290505050611665565b604051808215151515815260200191505060405180910390f35b34801561046a57600080fd5b506105bb6004803603604081101561048157600080fd5b810190808035906020019064010000000081111561049e57600080fd5b8201836020820111156104b057600080fd5b803590602001918460018302840111640100000000831117156104d257600080fd5b91908080601f016020809104026020016040519081016040528093929190818152602001838380828437600081840152601f19601f8201169050808301925050505050505091929192908035906020019064010000000081111561053557600080fd5b82018360208201111561054757600080fd5b8035906020019184600183028401116401000000008311171561056957600080fd5b91908080601f016020809104026020016040519081016040528093929190818152602001838380828437600081840152601f19601f8201169050808301925050505050505091929192905050506118da565b6040518082815260200191505060405180910390f35b3480156105dd57600080fd5b5061060a600480360360208110156105f457600080fd5b81019080803590602001909291905050506119bb565b604051808873ffffffffffffffffffffffffffffffffffffffff1673ffffffffffffffffffffffffffffffffffffffff1681526020018060200187815260200180602001806020018673ffffffffffffffffffffffffffffffffffffffff1673ffffffffffffffffffffffffffffffffffffffff16815260200185600381111561069057fe5b60ff16815260200184810384528a818151815260200191508051906020019080838360005b838110156106d05780820151818401526020810190506106b5565b50505050905090810190601f1680156106fd5780820380516001836020036101000a031916815260200191505b50848103835288818151815260200191508051906020019080838360005b8381101561073657808201518184015260208101905061071b565b50505050905090810190601f1680156107635780820380516001836020036101000a031916815260200191505b50848103825287818151815260200191508051906020019080838360005b8381101561079c578082015181840152602081019050610781565b50505050905090810190601f1680156107c95780820380516001836020036101000a031916815260200191505b509a505050505050505050505060405180910390f35b3480156107eb57600080fd5b50610a07600480360360c081101561080257600080fd5b81019080803573ffffffffffffffffffffffffffffffffffffffff1690602001909291908035906020019064010000000081111561083f57600080fd5b82018360208201111561085157600080fd5b8035906020019184600183028401116401000000008311171561087357600080fd5b91908080601f016020809104026020016040519081016040528093929190818152602001838380828437600081840152601f19601f82011690508083019250505050505050919291929080359060200190929190803590602001906401000000008111156108e057600080fd5b8201836020820111156108f257600080fd5b8035906020019184600183028401116401000000008311171561091457600080fd5b91908080601f016020809104026020016040519081016040528093929190818152602001838380828437600081840152601f19601f820116905080830192505050505050509192919290803590602001909291908035906020019064010000000081111561098157600080fd5b82018360208201111561099357600080fd5b803590602001918460018302840111640100000000831117156109b557600080fd5b91908080601f016020809104026020016040519081016040528093929190818152602001838380828437600081840152601f19601f820116905080830192505050505050509192919290505050611c9f565b604051808215151515815260200191505060405180910390f35b348015610a2d57600080fd5b50610a5a60048036036020811015610a4457600080fd5b8101908080359060200190929190505050611e75565b005b348015610a6857600080fd5b50610aab60048036036020811015610a7f57600080fd5b81019080803573ffffffffffffffffffffffffffffffffffffffff169060200190929190505050611f65565b604051808873ffffffffffffffffffffffffffffffffffffffff1673ffffffffffffffffffffffffffffffffffffffff1681526020018060200187815260200180602001868152602001806020018515151515815260200184810384528a818151815260200191508051906020019080838360005b83811015610b3b578082015181840152602081019050610b20565b50505050905090810190601f168015610b685780820380516001836020036101000a031916815260200191505b50848103835288818151815260200191508051906020019080838360005b83811015610ba1578082015181840152602081019050610b86565b50505050905090810190601f168015610bce5780820380516001836020036101000a031916815260200191505b50848103825286818151815260200191508051906020019080838360005b83811015610c07578082015181840152602081019050610bec565b50505050905090810190601f168015610c345780820380516001836020036101000a031916815260200191505b509a505050505050505050505060405180910390f35b610c7660048036036020811015610c6057600080fd5b81019080803590602001909291905050506123ba565b005b348015610c8457600080fd5b50610cb160048036036020811015610c9b57600080fd5b81019080803590602001909291905050506127fc565b005b348015610cbf57600080fd5b50610cec60048036036020811015610cd657600080fd5b81019080803590602001909291905050506128a6565b604051808a73ffffffffffffffffffffffffffffffffffffffff1673ffffffffffffffffffffffffffffffffffffffff168152602001806020018060200189815260200188815260200180602001806020018773ffffffffffffffffffffffffffffffffffffffff1673ffffffffffffffffffffffffffffffffffffffff168152602001866003811115610d7c57fe5b60ff16815260200185810385528d818151815260200191508051906020019080838360005b83811015610dbc578082015181840152602081019050610da1565b50505050905090810190601f168015610de95780820380516001836020036101000a031916815260200191505b5085810384528c818151815260200191508051906020019080838360005b83811015610e22578082015181840152602081019050610e07565b50505050905090810190601f168015610e4f5780820380516001836020036101000a031916815260200191505b50858103835289818151815260200191508051906020019080838360005b83811015610e88578082015181840152602081019050610e6d565b50505050905090810190601f168015610eb55780820380516001836020036101000a031916815260200191505b50858103825288818151815260200191508051906020019080838360005b83811015610eee578082015181840152602081019050610ed3565b50505050905090810190601f168015610f1b5780820380516001836020036101000a031916815260200191505b509d505050505050505050505050505060405180910390f35b348015610f4057600080fd5b50610f6d60048036036020811015610f5757600080fd5b8101908080359060200190929190505050612ba1565b604051808473ffffffffffffffffffffffffffffffffffffffff1673ffffffffffffffffffffffffffffffffffffffff1681526020018373ffffffffffffffffffffffffffffffffffffffff1673ffffffffffffffffffffffffffffffffffffffff168152602001828152602001935050505060405180910390f35b348015610ff557600080fd5b506110426004803603604081101561100c57600080fd5b8101908080359060200190929190803573ffffffffffffffffffffffffffffffffffffffff169060200190929190505050612c0b565b6040518082815260200191505060405180910390f35b34801561106457600080fd5b506110a76004803603602081101561107b57600080fd5b81019080803573ffffffffffffffffffffffffffffffffffffffff169060200190929190505050612cda565b604051808873ffffffffffffffffffffffffffffffffffffffff1673ffffffffffffffffffffffffffffffffffffffff1681526020018060200187815260200180602001868152602001806020018515151515815260200184810384528a818151815260200191508051906020019080838360005b8381101561113757808201518184015260208101905061111c565b50505050905090810190601f1680156111645780820380516001836020036101000a031916815260200191505b50848103835288818151815260200191508051906020019080838360005b8381101561119d578082015181840152602081019050611182565b50505050905090810190601f1680156111ca5780820380516001836020036101000a031916815260200191505b50848103825286818151815260200191508051906020019080838360005b838110156112035780820151818401526020810190506111e8565b50505050905090810190601f1680156112305780820380516001836020036101000a031916815260200191505b509a505050505050505050505060405180910390f35b34801561125257600080fd5b5061125b612f11565b6040518080602001828103825283818151815260200191508051906020019060200280838360005b8381101561129e578082015181840152602081019050611283565b505050509050019250505060405180910390f35b3480156112be57600080fd5b506112eb600480360360208110156112d557600080fd5b8101908080359060200190929190505050612f69565b005b3480156112f957600080fd5b5061130261303a565b6040518080602001828103825283818151815260200191508051906020019060200280838360005b8381101561134557808201518184015260208101905061132a565b505050509050019250505060405180910390f35b34801561136557600080fd5b506114c06004803603606081101561137c57600080fd5b8101908080359060200190929190803590602001906401000000008111156113a357600080fd5b8201836020820111156113b557600080fd5b803590602001918460018302840111640100000000831117156113d757600080fd5b91908080601f016020809104026020016040519081016040528093929190818152602001838380828437600081840152601f19601f8201169050808301925050505050505091929192908035906020019064010000000081111561143a57600080fd5b82018360208201111561144c57600080fd5b8035906020019184600183028401116401000000008311171561146e57600080fd5b91908080601f016020809104026020016040519081016040528093929190818152602001838380828437600081840152601f19601f820116905080830192505050505050509192919290505050613092565b604051808215151515815260200191505060405180910390f35b3480156114e657600080fd5b50611513600480360360208110156114fd57600080fd5b81019080803590602001909291905050506130f5565b604051808373ffffffffffffffffffffffffffffffffffffffff1673ffffffffffffffffffffffffffffffffffffffff1681526020018273ffffffffffffffffffffffffffffffffffffffff1673ffffffffffffffffffffffffffffffffffffffff1681526020019250505060405180910390f35b34801561159457600080fd5b506115ce600480360360408110156115ab57600080fd5b8101908080359060200190929190803560ff16906020019092919050505061316f565b005b6060600460003373ffffffffffffffffffffffffffffffffffffffff1673ffffffffffffffffffffffffffffffffffffffff16815260200190815260200160002080548060200260200160405190810160405280929190818152602001828054801561165b57602002820191906000526020600020905b815481526020019060010190808311611647575b5050505050905090565b60006040518061012001604052808973ffffffffffffffffffffffffffffffffffffffff168152602001888152602001878152602001868152602001858152602001848152602001838152602001600073ffffffffffffffffffffffffffffffffffffffff168152602001600060038111156116dd57fe5b8152506006600086815260200190815260200160002060008201518160000160006101000a81548173ffffffffffffffffffffffffffffffffffffffff021916908373ffffffffffffffffffffffffffffffffffffffff1602179055506020820151816001019080519060200190611756929190613665565b506040820151816002019080519060200190611773929190613665565b50606082015181600301556080820151816004015560a08201518160050190805190602001906117a4929190613665565b5060c08201518160060190805190602001906117c1929190613665565b5060e08201518160070160006101000a81548173ffffffffffffffffffffffffffffffffffffffff021916908373ffffffffffffffffffffffffffffffffffffffff1602179055506101008201518160070160146101000a81548160ff0219169083600381111561182e57fe5b0217905550905050600460008973ffffffffffffffffffffffffffffffffffffffff1673ffffffffffffffffffffffffffffffffffffffff168152602001908152602001600020849080600181540180825580915050906001820390600052602060002001600090919290919091505550600184908060018154018082558091505090600182039060005260206000200160009091929091909150555060019050979650505050505050565b60006509184e72a00083836040516020018083805190602001908083835b6020831061191b57805182526020820191506020810190506020830392506118f8565b6001836020036101000a03801982511681845116808217855250505050505090500182805190602001908083835b6020831061196c5780518252602082019150602081019050602083039250611949565b6001836020036101000a038019825116818451168082178552505050505050905001925050506040516020818303038152906040528051906020012060001c816119b257fe5b06905092915050565b6000606060006060806000806006600089815260200190815260200160002060000160009054906101000a900473ffffffffffffffffffffffffffffffffffffffff16600660008a8152602001908152602001600020600101600660008b815260200190815260200160002060030154600660008c8152602001908152602001600020600501600660008d8152602001908152602001600020600601600660008e815260200190815260200160002060070160009054906101000a900473ffffffffffffffffffffffffffffffffffffffff16600660008f815260200190815260200160002060070160149054906101000a900460ff16858054600181600116156101000203166002900480601f016020809104026020016040519081016040528092919081815260200182805460018160011615610100020316600290048015611b475780601f10611b1c57610100808354040283529160200191611b47565b820191906000526020600020905b815481529060010190602001808311611b2a57829003601f168201915b50505050509550838054600181600116156101000203166002900480601f016020809104026020016040519081016040528092919081815260200182805460018160011615610100020316600290048015611be35780601f10611bb857610100808354040283529160200191611be3565b820191906000526020600020905b815481529060010190602001808311611bc657829003601f168201915b50505050509350828054600181600116156101000203166002900480601f016020809104026020016040519081016040528092919081815260200182805460018160011615610100020316600290048015611c7f5780601f10611c5457610100808354040283529160200191611c7f565b820191906000526020600020905b815481529060010190602001808311611c6257829003601f168201915b505050505092509650965096509650965096509650919395979092949650565b60006040518060e001604052808873ffffffffffffffffffffffffffffffffffffffff16815260200187815260200186815260200185815260200184815260200183815260200160011515815250600560008973ffffffffffffffffffffffffffffffffffffffff1673ffffffffffffffffffffffffffffffffffffffff16815260200190815260200160002060008201518160000160006101000a81548173ffffffffffffffffffffffffffffffffffffffff021916908373ffffffffffffffffffffffffffffffffffffffff1602179055506020820151816001019080519060200190611d8f929190613665565b50604082015181600201556060820151816003019080519060200190611db6929190613665565b506080820151816004015560a0820151816005019080519060200190611ddd929190613665565b5060c08201518160060160006101000a81548160ff02191690831515021790555090505060008790806001815401808255809150509060018203906000526020600020016000909192909190916101000a81548173ffffffffffffffffffffffffffffffffffffffff021916908373ffffffffffffffffffffffffffffffffffffffff16021790555050600190509695505050505050565b336006600083815260200190815260200160002060070160006101000a81548173ffffffffffffffffffffffffffffffffffffffff021916908373ffffffffffffffffffffffffffffffffffffffff1602179055506040518060400160405280600781526020017f50656e64696e6700000000000000000000000000000000000000000000000000815250600660008381526020019081526020016000206006019080519060200190611f299291906136e5565b5060016006600083815260200190815260200160002060070160146101000a81548160ff02191690836003811115611f5d57fe5b021790555050565b6000606060006060600060606000600560008973ffffffffffffffffffffffffffffffffffffffff1673ffffffffffffffffffffffffffffffffffffffff16815260200190815260200160002060060160009054906101000a900460ff16156123ae57600560008973ffffffffffffffffffffffffffffffffffffffff1673ffffffffffffffffffffffffffffffffffffffff16815260200190815260200160002060000160009054906101000a900473ffffffffffffffffffffffffffffffffffffffff16600560008a73ffffffffffffffffffffffffffffffffffffffff1673ffffffffffffffffffffffffffffffffffffffff168152602001908152602001600020600101600560008b73ffffffffffffffffffffffffffffffffffffffff1673ffffffffffffffffffffffffffffffffffffffff16815260200190815260200160002060020154600560008c73ffffffffffffffffffffffffffffffffffffffff1673ffffffffffffffffffffffffffffffffffffffff168152602001908152602001600020600301600560008d73ffffffffffffffffffffffffffffffffffffffff1673ffffffffffffffffffffffffffffffffffffffff16815260200190815260200160002060040154600560008e73ffffffffffffffffffffffffffffffffffffffff1673ffffffffffffffffffffffffffffffffffffffff168152602001908152602001600020600501600560008f73ffffffffffffffffffffffffffffffffffffffff1673ffffffffffffffffffffffffffffffffffffffff16815260200190815260200160002060060160009054906101000a900460ff16858054600181600116156101000203166002900480601f01602080910402602001604051908101604052809291908181526020018280546001816001161561010002031660029004801561225c5780601f106122315761010080835404028352916020019161225c565b820191906000526020600020905b81548152906001019060200180831161223f57829003601f168201915b50505050509550838054600181600116156101000203166002900480601f0160208091040260200160405190810160405280929190818152602001828054600181600116156101000203166002900480156122f85780601f106122cd576101008083540402835291602001916122f8565b820191906000526020600020905b8154815290600101906020018083116122db57829003601f168201915b50505050509350818054600181600116156101000203166002900480601f0160208091040260200160405190810160405280929190818152602001828054600181600116156101000203166002900480156123945780601f1061236957610100808354040283529160200191612394565b820191906000526020600020905b81548152906001019060200180831161237757829003601f168201915b5050505050915096509650965096509650965096506123af565b5b919395979092949650565b6006600082815260200190815260200160002060070160009054906101000a900473ffffffffffffffffffffffffffffffffffffffff1673ffffffffffffffffffffffffffffffffffffffff163373ffffffffffffffffffffffffffffffffffffffff161461242857600080fd5b60038081111561243457fe5b6006600083815260200190815260200160002060070160149054906101000a900460ff16600381111561246357fe5b1461246d57600080fd5b670de0b6b3a7640000600660008381526020019081526020016000206003015402341461249957600080fd5b6006600082815260200190815260200160002060000160009054906101000a900473ffffffffffffffffffffffffffffffffffffffff1673ffffffffffffffffffffffffffffffffffffffff166108fc670de0b6b3a76400006006600085815260200190815260200160002060030154029081150290604051600060405180830381858888f19350505050158015612535573d6000803e3d6000fd5b506125766006600083815260200190815260200160002060000160009054906101000a900473ffffffffffffffffffffffffffffffffffffffff1682613386565b336006600083815260200190815260200160002060000160006101000a81548173ffffffffffffffffffffffffffffffffffffffff021916908373ffffffffffffffffffffffffffffffffffffffff1602179055506040518060400160405280600c81526020017f4e6f7420417070726f766564000000000000000000000000000000000000000081525060066000838152602001908152602001600020600501908051906020019061262a9291906136e5565b506040518060400160405280601d81526020017f4e6f742079657420617070726f7665642062792074686520676f76742e00000081525060066000838152602001908152602001600020600601908051906020019061268a9291906136e5565b5060006006600083815260200190815260200160002060070160006101000a81548173ffffffffffffffffffffffffffffffffffffffff021916908373ffffffffffffffffffffffffffffffffffffffff16021790555060006006600083815260200190815260200160002060070160146101000a81548160ff0219169083600381111561271457fe5b0217905550600460003373ffffffffffffffffffffffffffffffffffffffff1673ffffffffffffffffffffffffffffffffffffffff1681526020019081526020016000208190806001815401808255809150509060018203906000526020600020016000909192909190915055506127f9816006600084815260200190815260200160002060000160009054906101000a900473ffffffffffffffffffffffffffffffffffffffff166006600085815260200190815260200160002060070160009054906101000a900473ffffffffffffffffffffffffffffffffffffffff1661353f565b50565b600080600090505b60028054905081101561284557826002828154811061281f57fe5b9060005260206000200154141561283857809150612845565b8080600101915050612804565b5060026001600280549050038154811061285b57fe5b90600052602060002001546002828154811061287357fe5b9060005260206000200181905550600280548061288c57fe5b600190038181906000526020600020016000905590555050565b60066020528060005260406000206000915090508060000160009054906101000a900473ffffffffffffffffffffffffffffffffffffffff1690806001018054600181600116156101000203166002900480601f0160208091040260200160405190810160405280929190818152602001828054600181600116156101000203166002900480156129785780601f1061294d57610100808354040283529160200191612978565b820191906000526020600020905b81548152906001019060200180831161295b57829003601f168201915b505050505090806002018054600181600116156101000203166002900480601f016020809104026020016040519081016040528092919081815260200182805460018160011615610100020316600290048015612a165780601f106129eb57610100808354040283529160200191612a16565b820191906000526020600020905b8154815290600101906020018083116129f957829003601f168201915b505050505090806003015490806004015490806005018054600181600116156101000203166002900480601f016020809104026020016040519081016040528092919081815260200182805460018160011615610100020316600290048015612ac05780601f10612a9557610100808354040283529160200191612ac0565b820191906000526020600020905b815481529060010190602001808311612aa357829003601f168201915b505050505090806006018054600181600116156101000203166002900480601f016020809104026020016040519081016040528092919081815260200182805460018160011615610100020316600290048015612b5e5780601f10612b3357610100808354040283529160200191612b5e565b820191906000526020600020905b815481529060010190602001808311612b4157829003601f168201915b5050505050908060070160009054906101000a900473ffffffffffffffffffffffffffffffffffffffff16908060070160149054906101000a900460ff16905089565b60076020528060005260406000206000915090508060000160009054906101000a900473ffffffffffffffffffffffffffffffffffffffff16908060010160009054906101000a900473ffffffffffffffffffffffffffffffffffffffff16908060020154905083565b600080600090505b600460008473ffffffffffffffffffffffffffffffffffffffff1673ffffffffffffffffffffffffffffffffffffffff16815260200190815260200160002080549050811015612ccf5783600460008573ffffffffffffffffffffffffffffffffffffffff1673ffffffffffffffffffffffffffffffffffffffff1681526020019081526020016000208281548110612ca857fe5b90600052602060002001541415612cc25780915050612cd4565b8080600101915050612c13565b809150505b92915050565b60056020528060005260406000206000915090508060000160009054906101000a900473ffffffffffffffffffffffffffffffffffffffff1690806001018054600181600116156101000203166002900480601f016020809104026020016040519081016040528092919081815260200182805460018160011615610100020316600290048015612dac5780601f10612d8157610100808354040283529160200191612dac565b820191906000526020600020905b815481529060010190602001808311612d8f57829003601f168201915b505050505090806002015490806003018054600181600116156101000203166002900480601f016020809104026020016040519081016040528092919081815260200182805460018160011615610100020316600290048015612e505780601f10612e2557610100808354040283529160200191612e50565b820191906000526020600020905b815481529060010190602001808311612e3357829003601f168201915b505050505090806004015490806005018054600181600116156101000203166002900480601f016020809104026020016040519081016040528092919081815260200182805460018160011615610100020316600290048015612ef45780601f10612ec957610100808354040283529160200191612ef4565b820191906000526020600020905b815481529060010190602001808311612ed757829003601f168201915b5050505050908060060160009054906101000a900460ff16905087565b60606001805480602002602001604051908101604052809291908181526020018280548015612f5f57602002820191906000526020600020905b815481526020019060010190808311612f4b575b5050505050905090565b3373ffffffffffffffffffffffffffffffffffffffff166006600083815260200190815260200160002060000160009054906101000a900473ffffffffffffffffffffffffffffffffffffffff1673ffffffffffffffffffffffffffffffffffffffff1614612fd757600080fd5b6040518060400160405280600981526020017f417661696c61626c6500000000000000000000000000000000000000000000008152506006600083815260200190815260200160002060060190805190602001906130369291906136e5565b5050565b6060600280548060200260200160405190810160405280929190818152602001828054801561308857602002820191906000526020600020905b815481526020019060010190808311613074575b5050505050905090565b6000826006600086815260200190815260200160002060050190805190602001906130be9291906136e5565b50816006600086815260200190815260200160002060060190805190602001906130e99291906136e5565b50600190509392505050565b6000806007600084815260200190815260200160002060000160009054906101000a900473ffffffffffffffffffffffffffffffffffffffff166007600085815260200190815260200160002060010160009054906101000a900473ffffffffffffffffffffffffffffffffffffffff1691509150915091565b3373ffffffffffffffffffffffffffffffffffffffff166006600084815260200190815260200160002060000160009054906101000a900473ffffffffffffffffffffffffffffffffffffffff1673ffffffffffffffffffffffffffffffffffffffff16146131dd57600080fd5b806006600084815260200190815260200160002060070160146101000a81548160ff0219169083600381111561320f57fe5b02179055506040518060400160405280600881526020017f417070726f7665640000000000000000000000000000000000000000000000008152506006600084815260200190815260200160002060060190805190602001906132739291906136e5565b506002600381111561328157fe5b81600381111561328d57fe5b14156133825760006006600084815260200190815260200160002060070160006101000a81548173ffffffffffffffffffffffffffffffffffffffff021916908373ffffffffffffffffffffffffffffffffffffffff16021790555060006006600084815260200190815260200160002060070160146101000a81548160ff0219169083600381111561331c57fe5b02179055506040518060400160405280600981526020017f417661696c61626c6500000000000000000000000000000000000000000000008152506006600084815260200190815260200160002060060190805190602001906133809291906136e5565b505b5050565b60006133928284612c0b565b90506000600460008573ffffffffffffffffffffffffffffffffffffffff1673ffffffffffffffffffffffffffffffffffffffff168152602001908152602001600020805490509050600460008573ffffffffffffffffffffffffffffffffffffffff1673ffffffffffffffffffffffffffffffffffffffff168152602001908152602001600020600182038154811061342857fe5b9060005260206000200154600460008673ffffffffffffffffffffffffffffffffffffffff1673ffffffffffffffffffffffffffffffffffffffff168152602001908152602001600020838154811061347d57fe5b9060005260206000200181905550600460008573ffffffffffffffffffffffffffffffffffffffff1673ffffffffffffffffffffffffffffffffffffffff16815260200190815260200160002060018203815481106134d857fe5b9060005260206000200160009055600460008573ffffffffffffffffffffffffffffffffffffffff1673ffffffffffffffffffffffffffffffffffffffff1681526020019081526020016000208054809190600190036135389190613765565b5050505050565b60405180606001604052808273ffffffffffffffffffffffffffffffffffffffff1681526020018373ffffffffffffffffffffffffffffffffffffffff168152602001848152506007600085815260200190815260200160002060008201518160000160006101000a81548173ffffffffffffffffffffffffffffffffffffffff021916908373ffffffffffffffffffffffffffffffffffffffff16021790555060208201518160010160006101000a81548173ffffffffffffffffffffffffffffffffffffffff021916908373ffffffffffffffffffffffffffffffffffffffff160217905550604082015181600201559050506002839080600181540180825580915050906001820390600052602060002001600090919290919091505550505050565b828054600181600116156101000203166002900490600052602060002090601f016020900481019282601f106136a657805160ff19168380011785556136d4565b828001600101855582156136d4579182015b828111156136d35782518255916020019190600101906136b8565b5b5090506136e19190613791565b5090565b828054600181600116156101000203166002900490600052602060002090601f016020900481019282601f1061372657805160ff1916838001178555613754565b82800160010185558215613754579182015b82811115613753578251825591602001919060010190613738565b5b5090506137619190613791565b5090565b81548183558181111561378c5781836000526020600020918201910161378b9190613791565b5b505050565b6137b391905b808211156137af576000816000905550600101613797565b5090565b9056fea265627a7a72315820af10e5fb941476d450e954ed2f28f0fe6628c342a2f2c4fcc84523c469aaa09e64736f6c63430005100032",
  "source": "pragma solidity ^0.5.0;\n\ncontract LandRegistry {\n    // struct Task {\n    //     uint256 id;\n    //     string content;\n    //     bool completed;\n    // }\n    struct user {\n        address userid;\n        string uname;\n        uint256 ucontact;\n        string uemail;\n        uint256 upostalCode;\n        string city;\n        bool exist;\n    }\n    struct landDetails {\n        address payable id;\n        string ipfsHash;\n        string laddress;\n        uint256 lamount;\n        uint256 key;\n        string isGovtApproved;\n        string isAvailable;\n        address requester;\n        reqStatus requestStatus;\n    }\n    struct transferDetails{\n        address buyer;\n        address payable seller;\n        uint256 key;\n    }\n\n    address[] userarr;\n    uint256[] assets;\n    uint256[] transferarr;\n\n    address owner;\n    enum reqStatus {Default, Pending, Rejected, Approved}\n\n    constructor() public {\n        owner = msg.sender;\n    }\n\n    // struct profiles {\n    //     uint256[] assetList;\n    // }\n\n    mapping(address => uint256[]) profile;      // address of user ==> list of land assets he owns\n    mapping(address => user) public users;      // address of user ==> details of user.\n    mapping(uint256 => landDetails) public land;// key of land     ==> details of land.\n    mapping(uint256 => transferDetails) public transfers;   // key of land     ==> transfer details of land.\n\n    function addUser(\n        address user_address, \n        string memory user_name, \n        uint256 user_contact, \n        string memory user_email,\n        uint256 user_postal_code,\n        string memory user_city\n    ) public returns (bool) {\n        users[user_address] = user(\n            user_address,\n            user_name,\n            user_contact,\n            user_email,\n            user_postal_code,\n            user_city,\n            true\n        );\n        userarr.push(user_address);\n        return true;\n    }\n\n    function getUser(address user_address)\n        public\n        view\n        returns (\n            address,\n            string memory,\n            uint256,\n            string memory,\n            uint256,\n            string memory,\n            bool\n        )\n    {\n        if (users[user_address].exist)\n            return (\n                users[user_address].userid,\n                users[user_address].uname,\n                users[user_address].ucontact,\n                users[user_address].uemail,\n                users[user_address].upostalCode,\n                users[user_address].city,\n                users[user_address].exist\n            );\n    }\n\n    function Registration(\n        address payable owner_id,\n        string memory _ipfsHash,\n        string memory _laddress,\n        uint256 _lamount,\n        uint256 _key,\n        string memory status,\n        string memory _isAvailable\n    ) public returns (bool) {\n        land[_key] = landDetails(\n            owner_id,\n            _ipfsHash,\n            _laddress,\n            _lamount,\n            _key,\n            status,\n            _isAvailable,\n            0x0000000000000000000000000000000000000000,\n            reqStatus.Default\n        );\n        profile[owner_id].push(_key);\n        assets.push(_key);\n        return true;\n    }\n\n    function computeId(string memory _laddress, string memory _lamount)\n        public\n        view\n        returns (uint256)\n    {\n        return\n            uint256(keccak256(abi.encodePacked(_laddress, _lamount))) % 10000000000000;\n    }\n\n    function viewAssets() public view returns (uint256[] memory) {\n        return (profile[msg.sender]);\n    }\n\n    function Assets() public view returns (uint256[] memory) {\n        return assets;\n    }\n\n    function getTransferarr() public view returns (uint256[] memory) {\n        return transferarr;\n    }\n\n    function getTranferInfo(uint256 property) public view returns (\n        address, \n        address payable){\n\n            return (\n                transfers[property].buyer,\n                transfers[property].seller\n            );\n    \n    }\n\n\n    function tranferComplete(uint256 property) public {\n        uint ind;\n        for (uint i = 0; i < transferarr.length; i++) {\n            if (transferarr[i] == property){\n                ind = i;\n                break;\n            }\n        }\n\n        transferarr[ind] = transferarr[transferarr.length - 1];\n        //delete transferarr[transferarr.length - 1];\n        //transferarr.length--;\n        transferarr.pop();\n        \n    }\n    function landInfoOwner(uint256 id)\n        public\n        view\n        returns (\n            address payable,\n            string memory,\n            uint256,\n            string memory,\n            string memory,\n            address,\n            reqStatus\n        )\n    {\n        return (\n            land[id].id,\n            land[id].ipfsHash,\n            land[id].lamount,\n            land[id].isGovtApproved,\n            land[id].isAvailable,\n            land[id].requester,\n            land[id].requestStatus\n        );\n    }\n\n    function govtStatus(\n        uint256 _id,\n        string memory status,\n        string memory _isAvailable\n    ) public returns (bool) {\n        land[_id].isGovtApproved = status;\n        land[_id].isAvailable = _isAvailable;\n        return true;\n    }\n\n    function makeAvailable(uint256 property) public {\n        require(land[property].id == msg.sender);\n        land[property].isAvailable = \"Available\";\n    }\n\n    function requstToLandOwner(uint256 id) public {\n        land[id].requester = msg.sender;\n        land[id].isAvailable = \"Pending\";\n        land[id].requestStatus = reqStatus.Pending;\n    }\n\n    function processRequest(uint256 property, reqStatus status) public {\n        require(land[property].id == msg.sender);\n        land[property].requestStatus = status;\n        land[property].isAvailable = \"Approved\";\n        if (status == reqStatus.Rejected) {\n            land[property].requester = address(0);\n            land[property].requestStatus = reqStatus.Default;\n            land[property].isAvailable = \"Available\";\n        }\n    }\n\n    function buyProperty(uint256 property) public payable {\n        require(msg.sender == land[property].requester);\n        require(land[property].requestStatus == reqStatus.Approved);\n        require(msg.value == (land[property].lamount * 1000000000000000000));\n\n        land[property].id.transfer(land[property].lamount * 1000000000000000000);\n        removeOwnership(land[property].id, property);\n\n        land[property].id = msg.sender;\n        land[property].isGovtApproved = \"Not Approved\";\n        land[property].isAvailable = \"Not yet approved by the govt.\";\n        land[property].requester = address(0);\n        land[property].requestStatus = reqStatus.Default;\n        profile[msg.sender].push(property);\n\n        transferLand(\n            property, \n            land[property].id, \n            land[property].requester);\n        \n\n    }\n    function transferLand(\n        uint property, \n        address payable seller, \n        address buyer) \n        private {\n            \n        transfers[property] = transferDetails(\n            buyer,\n            seller,\n            property\n        );\n        transferarr.push(property);\n\n    }\n\n    function removeOwnership(address previousOwner, uint256 id) private {\n        uint256 index = findId(id, previousOwner);\n        uint256 len = profile[previousOwner].length;\n\n        profile[previousOwner][index] = profile[previousOwner][len - 1];\n        delete profile[previousOwner][len - 1];\n        profile[previousOwner].length--;\n    }\n\n    function findId(uint256 id, address user) public view returns (uint256) {\n        uint256 i;\n        for (i = 0; i < profile[user].length; i++) {\n            if (profile[user][i] == id) return i;\n        }\n        return i;\n    }\n}\n",
  "sourcePath": "/Users/akshitsethi/Documents/Land-Registry-Blockchain/contracts/LandRegistry.sol",
  "compiler": {
    "name": "solc",
    "version": "0.5.16+commit.9c3226ce.Emscripten.clang"
  },
  "schemaVersion": "3.4.7",
  "updatedAt": "2022-05-17T16:47:31.201Z",
  "networkType": "ethereum",
  "devdoc": {
    "methods": {}
  },
  "userdoc": {
    "methods": {}
  }
}