{
  "contractName": "LandRegistry",
  "abi": [
    {
      "inputs": [],
      "payable": false,
      "stateMutability": "nonpayable",
      "type": "constructor"
    },
    {
      "constant": true,
      "inputs": [
        {
          "internalType": "uint256",
          "name": "",
          "type": "uint256"
        }
      ],
      "name": "land",
      "outputs": [
        {
          "internalType": "address payable",
          "name": "id",
          "type": "address"
        },
        {
          "internalType": "string",
          "name": "ipfsHash",
          "type": "string"
        },
        {
          "internalType": "string",
          "name": "laddress",
          "type": "string"
        },
        {
          "internalType": "uint256",
          "name": "lamount",
          "type": "uint256"
        },
        {
          "internalType": "uint256",
          "name": "key",
          "type": "uint256"
        },
        {
          "internalType": "string",
          "name": "isGovtApproved",
          "type": "string"
        },
        {
          "internalType": "string",
          "name": "isAvailable",
          "type": "string"
        },
        {
          "internalType": "address",
          "name": "requester",
          "type": "address"
        },
        {
          "internalType": "enum LandRegistry.reqStatus",
          "name": "requestStatus",
          "type": "uint8"
        }
      ],
      "payable": false,
      "stateMutability": "view",
      "type": "function"
    },
    {
      "constant": true,
      "inputs": [
        {
          "internalType": "address",
          "name": "",
          "type": "address"
        }
      ],
      "name": "users",
      "outputs": [
        {
          "internalType": "address",
          "name": "userid",
          "type": "address"
        },
        {
          "internalType": "string",
          "name": "uname",
          "type": "string"
        },
        {
          "internalType": "uint256",
          "name": "ucontact",
          "type": "uint256"
        },
        {
          "internalType": "string",
          "name": "uemail",
          "type": "string"
        },
        {
          "internalType": "uint256",
          "name": "upostalCode",
          "type": "uint256"
        },
        {
          "internalType": "string",
          "name": "city",
          "type": "string"
        },
        {
          "internalType": "bool",
          "name": "exist",
          "type": "bool"
        }
      ],
      "payable": false,
      "stateMutability": "view",
      "type": "function"
    },
    {
      "constant": false,
      "inputs": [
        {
          "internalType": "address",
          "name": "user_address",
          "type": "address"
        },
        {
          "internalType": "string",
          "name": "user_name",
          "type": "string"
        },
        {
          "internalType": "uint256",
          "name": "user_contact",
          "type": "uint256"
        },
        {
          "internalType": "string",
          "name": "user_email",
          "type": "string"
        },
        {
          "internalType": "uint256",
          "name": "user_postal_code",
          "type": "uint256"
        },
        {
          "internalType": "string",
          "name": "user_city",
          "type": "string"
        }
      ],
      "name": "addUser",
      "outputs": [
        {
          "internalType": "bool",
          "name": "",
          "type": "bool"
        }
      ],
      "payable": false,
      "stateMutability": "nonpayable",
      "type": "function"
    },
    {
      "constant": true,
      "inputs": [
        {
          "internalType": "address",
          "name": "user_address",
          "type": "address"
        }
      ],
      "name": "getUser",
      "outputs": [
        {
          "internalType": "address",
          "name": "",
          "type": "address"
        },
        {
          "internalType": "string",
          "name": "",
          "type": "string"
        },
        {
          "internalType": "uint256",
          "name": "",
          "type": "uint256"
        },
        {
          "internalType": "string",
          "name": "",
          "type": "string"
        },
        {
          "internalType": "uint256",
          "name": "",
          "type": "uint256"
        },
        {
          "internalType": "string",
          "name": "",
          "type": "string"
        },
        {
          "internalType": "bool",
          "name": "",
          "type": "bool"
        }
      ],
      "payable": false,
      "stateMutability": "view",
      "type": "function"
    },
    {
      "constant": false,
      "inputs": [
        {
          "internalType": "address payable",
          "name": "owner_id",
          "type": "address"
        },
        {
          "internalType": "string",
          "name": "_ipfsHash",
          "type": "string"
        },
        {
          "internalType": "string",
          "name": "_laddress",
          "type": "string"
        },
        {
          "internalType": "uint256",
          "name": "_lamount",
          "type": "uint256"
        },
        {
          "internalType": "uint256",
          "name": "_key",
          "type": "uint256"
        },
        {
          "internalType": "string",
          "name": "status",
          "type": "string"
        },
        {
          "internalType": "string",
          "name": "_isAvailable",
          "type": "string"
        }
      ],
      "name": "Registration",
      "outputs": [
        {
          "internalType": "bool",
          "name": "",
          "type": "bool"
        }
      ],
      "payable": false,
      "stateMutability": "nonpayable",
      "type": "function"
    },
    {
      "constant": true,
      "inputs": [
        {
          "internalType": "string",
          "name": "_laddress",
          "type": "string"
        },
        {
          "internalType": "string",
          "name": "_lamount",
          "type": "string"
        }
      ],
      "name": "computeId",
      "outputs": [
        {
          "internalType": "uint256",
          "name": "",
          "type": "uint256"
        }
      ],
      "payable": false,
      "stateMutability": "view",
      "type": "function"
    },
    {
      "constant": true,
      "inputs": [],
      "name": "viewAssets",
      "outputs": [
        {
          "internalType": "uint256[]",
          "name": "",
          "type": "uint256[]"
        }
      ],
      "payable": false,
      "stateMutability": "view",
      "type": "function"
    },
    {
      "constant": true,
      "inputs": [],
      "name": "Assets",
      "outputs": [
        {
          "internalType": "uint256[]",
          "name": "",
          "type": "uint256[]"
        }
      ],
      "payable": false,
      "stateMutability": "view",
      "type": "function"
    },
    {
      "constant": true,
      "inputs": [
        {
          "internalType": "uint256",
          "name": "id",
          "type": "uint256"
        }
      ],
      "name": "landInfoOwner",
      "outputs": [
        {
          "internalType": "address payable",
          "name": "",
          "type": "address"
        },
        {
          "internalType": "string",
          "name": "",
          "type": "string"
        },
        {
          "internalType": "uint256",
          "name": "",
          "type": "uint256"
        },
        {
          "internalType": "string",
          "name": "",
          "type": "string"
        },
        {
          "internalType": "string",
          "name": "",
          "type": "string"
        },
        {
          "internalType": "address",
          "name": "",
          "type": "address"
        },
        {
          "internalType": "enum LandRegistry.reqStatus",
          "name": "",
          "type": "uint8"
        }
      ],
      "payable": false,
      "stateMutability": "view",
      "type": "function"
    },
    {
      "constant": false,
      "inputs": [
        {
          "internalType": "uint256",
          "name": "_id",
          "type": "uint256"
        },
        {
          "internalType": "string",
          "name": "status",
          "type": "string"
        },
        {
          "internalType": "string",
          "name": "_isAvailable",
          "type": "string"
        }
      ],
      "name": "govtStatus",
      "outputs": [
        {
          "internalType": "bool",
          "name": "",
          "type": "bool"
        }
      ],
      "payable": false,
      "stateMutability": "nonpayable",
      "type": "function"
    },
    {
      "constant": false,
      "inputs": [
        {
          "internalType": "uint256",
          "name": "property",
          "type": "uint256"
        }
      ],
      "name": "makeAvailable",
      "outputs": [],
      "payable": false,
      "stateMutability": "nonpayable",
      "type": "function"
    },
    {
      "constant": false,
      "inputs": [
        {
          "internalType": "uint256",
          "name": "id",
          "type": "uint256"
        }
      ],
      "name": "requstToLandOwner",
      "outputs": [],
      "payable": false,
      "stateMutability": "nonpayable",
      "type": "function"
    },
    {
      "constant": false,
      "inputs": [
        {
          "internalType": "uint256",
          "name": "property",
          "type": "uint256"
        },
        {
          "internalType": "enum LandRegistry.reqStatus",
          "name": "status",
          "type": "uint8"
        }
      ],
      "name": "processRequest",
      "outputs": [],
      "payable": false,
      "stateMutability": "nonpayable",
      "type": "function"
    },
    {
      "constant": false,
      "inputs": [
        {
          "internalType": "uint256",
          "name": "property",
          "type": "uint256"
        }
      ],
      "name": "buyProperty",
      "outputs": [],
      "payable": true,
      "stateMutability": "payable",
      "type": "function"
    },
    {
      "constant": true,
      "inputs": [
        {
          "internalType": "uint256",
          "name": "id",
          "type": "uint256"
        },
        {
          "internalType": "address",
          "name": "user",
          "type": "address"
        }
      ],
      "name": "findId",
      "outputs": [
        {
          "internalType": "uint256",
          "name": "",
          "type": "uint256"
        }
      ],
      "payable": false,
      "stateMutability": "view",
      "type": "function"
    }
  ],
  "bytecode": "0x608060405234801561001057600080fd5b5033600260006101000a81548173ffffffffffffffffffffffffffffffffffffffff021916908373ffffffffffffffffffffffffffffffffffffffff160217905550613232806100616000396000f3fe6080604052600436106100e85760003560e01c80636fa830a61161008a578063ae32a32511610059578063ae32a3251461112a578063baa39e0514611196578063f2c7027f146111d1578063fdb10f5014611352576100e8565b80636fa830a614610c1e578063861e465614610c4c578063a27664ee14610ecd578063a87430ba14610f3c576100e8565b806355d61952116100c657806355d61952146105a5578063621fdbb7146107b35780636c5ed939146109f55780636f77926b14610a30576100e8565b80630d2d5dca146100ed5780630e435f08146101595780633e40e29614610432575b600080fd5b3480156100f957600080fd5b5061010261139a565b6040518080602001828103825283818151815260200191508051906020019060200280838360005b8381101561014557808201518184015260208101905061012a565b505050509050019250505060405180910390f35b34801561016557600080fd5b50610418600480360360e081101561017c57600080fd5b81019080803573ffffffffffffffffffffffffffffffffffffffff169060200190929190803590602001906401000000008111156101b957600080fd5b8201836020820111156101cb57600080fd5b803590602001918460018302840111640100000000831117156101ed57600080fd5b91908080601f016020809104026020016040519081016040528093929190818152602001838380828437600081840152601f19601f8201169050808301925050505050505091929192908035906020019064010000000081111561025057600080fd5b82018360208201111561026257600080fd5b8035906020019184600183028401116401000000008311171561028457600080fd5b91908080601f016020809104026020016040519081016040528093929190818152602001838380828437600081840152601f19601f8201169050808301925050505050505091929192908035906020019092919080359060200190929190803590602001906401000000008111156102fb57600080fd5b82018360208201111561030d57600080fd5b8035906020019184600183028401116401000000008311171561032f57600080fd5b91908080601f016020809104026020016040519081016040528093929190818152602001838380828437600081840152601f19601f8201169050808301925050505050505091929192908035906020019064010000000081111561039257600080fd5b8201836020820111156103a457600080fd5b803590602001918460018302840111640100000000831117156103c657600080fd5b91908080601f016020809104026020016040519081016040528093929190818152602001838380828437600081840152601f19601f82011690508083019250505050505050919291929050505061142f565b604051808215151515815260200191505060405180910390f35b34801561043e57600080fd5b5061058f6004803603604081101561045557600080fd5b810190808035906020019064010000000081111561047257600080fd5b82018360208201111561048457600080fd5b803590602001918460018302840111640100000000831117156104a657600080fd5b91908080601f016020809104026020016040519081016040528093929190818152602001838380828437600081840152601f19601f8201169050808301925050505050505091929192908035906020019064010000000081111561050957600080fd5b82018360208201111561051b57600080fd5b8035906020019184600183028401116401000000008311171561053d57600080fd5b91908080601f016020809104026020016040519081016040528093929190818152602001838380828437600081840152601f19601f8201169050808301925050505050505091929192905050506116a4565b6040518082815260200191505060405180910390f35b3480156105b157600080fd5b506105de600480360360208110156105c857600080fd5b8101908080359060200190929190505050611785565b604051808873ffffffffffffffffffffffffffffffffffffffff1673ffffffffffffffffffffffffffffffffffffffff1681526020018060200187815260200180602001806020018673ffffffffffffffffffffffffffffffffffffffff1673ffffffffffffffffffffffffffffffffffffffff16815260200185600381111561066457fe5b60ff16815260200184810384528a818151815260200191508051906020019080838360005b838110156106a4578082015181840152602081019050610689565b50505050905090810190601f1680156106d15780820380516001836020036101000a031916815260200191505b50848103835288818151815260200191508051906020019080838360005b8381101561070a5780820151818401526020810190506106ef565b50505050905090810190601f1680156107375780820380516001836020036101000a031916815260200191505b50848103825287818151815260200191508051906020019080838360005b83811015610770578082015181840152602081019050610755565b50505050905090810190601f16801561079d5780820380516001836020036101000a031916815260200191505b509a505050505050505050505060405180910390f35b3480156107bf57600080fd5b506109db600480360360c08110156107d657600080fd5b81019080803573ffffffffffffffffffffffffffffffffffffffff1690602001909291908035906020019064010000000081111561081357600080fd5b82018360208201111561082557600080fd5b8035906020019184600183028401116401000000008311171561084757600080fd5b91908080601f016020809104026020016040519081016040528093929190818152602001838380828437600081840152601f19601f82011690508083019250505050505050919291929080359060200190929190803590602001906401000000008111156108b457600080fd5b8201836020820111156108c657600080fd5b803590602001918460018302840111640100000000831117156108e857600080fd5b91908080601f016020809104026020016040519081016040528093929190818152602001838380828437600081840152601f19601f820116905080830192505050505050509192919290803590602001909291908035906020019064010000000081111561095557600080fd5b82018360208201111561096757600080fd5b8035906020019184600183028401116401000000008311171561098957600080fd5b91908080601f016020809104026020016040519081016040528093929190818152602001838380828437600081840152601f19601f820116905080830192505050505050509192919290505050611a69565b604051808215151515815260200191505060405180910390f35b348015610a0157600080fd5b50610a2e60048036036020811015610a1857600080fd5b8101908080359060200190929190505050611c3f565b005b348015610a3c57600080fd5b50610a7f60048036036020811015610a5357600080fd5b81019080803573ffffffffffffffffffffffffffffffffffffffff169060200190929190505050611d2f565b604051808873ffffffffffffffffffffffffffffffffffffffff1673ffffffffffffffffffffffffffffffffffffffff1681526020018060200187815260200180602001868152602001806020018515151515815260200184810384528a818151815260200191508051906020019080838360005b83811015610b0f578082015181840152602081019050610af4565b50505050905090810190601f168015610b3c5780820380516001836020036101000a031916815260200191505b50848103835288818151815260200191508051906020019080838360005b83811015610b75578082015181840152602081019050610b5a565b50505050905090810190601f168015610ba25780820380516001836020036101000a031916815260200191505b50848103825286818151815260200191508051906020019080838360005b83811015610bdb578082015181840152602081019050610bc0565b50505050905090810190601f168015610c085780820380516001836020036101000a031916815260200191505b509a505050505050505050505060405180910390f35b610c4a60048036036020811015610c3457600080fd5b8101908080359060200190929190505050612184565b005b348015610c5857600080fd5b50610c8560048036036020811015610c6f57600080fd5b810190808035906020019092919050505061254f565b604051808a73ffffffffffffffffffffffffffffffffffffffff1673ffffffffffffffffffffffffffffffffffffffff168152602001806020018060200189815260200188815260200180602001806020018773ffffffffffffffffffffffffffffffffffffffff1673ffffffffffffffffffffffffffffffffffffffff168152602001866003811115610d1557fe5b60ff16815260200185810385528d818151815260200191508051906020019080838360005b83811015610d55578082015181840152602081019050610d3a565b50505050905090810190601f168015610d825780820380516001836020036101000a031916815260200191505b5085810384528c818151815260200191508051906020019080838360005b83811015610dbb578082015181840152602081019050610da0565b50505050905090810190601f168015610de85780820380516001836020036101000a031916815260200191505b50858103835289818151815260200191508051906020019080838360005b83811015610e21578082015181840152602081019050610e06565b50505050905090810190601f168015610e4e5780820380516001836020036101000a031916815260200191505b50858103825288818151815260200191508051906020019080838360005b83811015610e87578082015181840152602081019050610e6c565b50505050905090810190601f168015610eb45780820380516001836020036101000a031916815260200191505b509d505050505050505050505050505060405180910390f35b348015610ed957600080fd5b50610f2660048036036040811015610ef057600080fd5b8101908080359060200190929190803573ffffffffffffffffffffffffffffffffffffffff16906020019092919050505061284a565b6040518082815260200191505060405180910390f35b348015610f4857600080fd5b50610f8b60048036036020811015610f5f57600080fd5b81019080803573ffffffffffffffffffffffffffffffffffffffff169060200190929190505050612919565b604051808873ffffffffffffffffffffffffffffffffffffffff1673ffffffffffffffffffffffffffffffffffffffff1681526020018060200187815260200180602001868152602001806020018515151515815260200184810384528a818151815260200191508051906020019080838360005b8381101561101b578082015181840152602081019050611000565b50505050905090810190601f1680156110485780820380516001836020036101000a031916815260200191505b50848103835288818151815260200191508051906020019080838360005b83811015611081578082015181840152602081019050611066565b50505050905090810190601f1680156110ae5780820380516001836020036101000a031916815260200191505b50848103825286818151815260200191508051906020019080838360005b838110156110e75780820151818401526020810190506110cc565b50505050905090810190601f1680156111145780820380516001836020036101000a031916815260200191505b509a505050505050505050505060405180910390f35b34801561113657600080fd5b5061113f612b50565b6040518080602001828103825283818151815260200191508051906020019060200280838360005b83811015611182578082015181840152602081019050611167565b505050509050019250505060405180910390f35b3480156111a257600080fd5b506111cf600480360360208110156111b957600080fd5b8101908080359060200190929190505050612ba8565b005b3480156111dd57600080fd5b50611338600480360360608110156111f457600080fd5b81019080803590602001909291908035906020019064010000000081111561121b57600080fd5b82018360208201111561122d57600080fd5b8035906020019184600183028401116401000000008311171561124f57600080fd5b91908080601f016020809104026020016040519081016040528093929190818152602001838380828437600081840152601f19601f820116905080830192505050505050509192919290803590602001906401000000008111156112b257600080fd5b8201836020820111156112c457600080fd5b803590602001918460018302840111640100000000831117156112e657600080fd5b91908080601f016020809104026020016040519081016040528093929190818152602001838380828437600081840152601f19601f820116905080830192505050505050509192919290505050612c79565b604051808215151515815260200191505060405180910390f35b34801561135e57600080fd5b506113986004803603604081101561137557600080fd5b8101908080359060200190929190803560ff169060200190929190505050612cdc565b005b6060600360003373ffffffffffffffffffffffffffffffffffffffff1673ffffffffffffffffffffffffffffffffffffffff16815260200190815260200160002080548060200260200160405190810160405280929190818152602001828054801561142557602002820191906000526020600020905b815481526020019060010190808311611411575b5050505050905090565b60006040518061012001604052808973ffffffffffffffffffffffffffffffffffffffff168152602001888152602001878152602001868152602001858152602001848152602001838152602001600073ffffffffffffffffffffffffffffffffffffffff168152602001600060038111156114a757fe5b8152506005600086815260200190815260200160002060008201518160000160006101000a81548173ffffffffffffffffffffffffffffffffffffffff021916908373ffffffffffffffffffffffffffffffffffffffff16021790555060208201518160010190805190602001906115209291906130ac565b50604082015181600201908051906020019061153d9291906130ac565b50606082015181600301556080820151816004015560a082015181600501908051906020019061156e9291906130ac565b5060c082015181600601908051906020019061158b9291906130ac565b5060e08201518160070160006101000a81548173ffffffffffffffffffffffffffffffffffffffff021916908373ffffffffffffffffffffffffffffffffffffffff1602179055506101008201518160070160146101000a81548160ff021916908360038111156115f857fe5b0217905550905050600360008973ffffffffffffffffffffffffffffffffffffffff1673ffffffffffffffffffffffffffffffffffffffff168152602001908152602001600020849080600181540180825580915050906001820390600052602060002001600090919290919091505550600184908060018154018082558091505090600182039060005260206000200160009091929091909150555060019050979650505050505050565b60006509184e72a00083836040516020018083805190602001908083835b602083106116e557805182526020820191506020810190506020830392506116c2565b6001836020036101000a03801982511681845116808217855250505050505090500182805190602001908083835b602083106117365780518252602082019150602081019050602083039250611713565b6001836020036101000a038019825116818451168082178552505050505050905001925050506040516020818303038152906040528051906020012060001c8161177c57fe5b06905092915050565b6000606060006060806000806005600089815260200190815260200160002060000160009054906101000a900473ffffffffffffffffffffffffffffffffffffffff16600560008a8152602001908152602001600020600101600560008b815260200190815260200160002060030154600560008c8152602001908152602001600020600501600560008d8152602001908152602001600020600601600560008e815260200190815260200160002060070160009054906101000a900473ffffffffffffffffffffffffffffffffffffffff16600560008f815260200190815260200160002060070160149054906101000a900460ff16858054600181600116156101000203166002900480601f0160208091040260200160405190810160405280929190818152602001828054600181600116156101000203166002900480156119115780601f106118e657610100808354040283529160200191611911565b820191906000526020600020905b8154815290600101906020018083116118f457829003601f168201915b50505050509550838054600181600116156101000203166002900480601f0160208091040260200160405190810160405280929190818152602001828054600181600116156101000203166002900480156119ad5780601f10611982576101008083540402835291602001916119ad565b820191906000526020600020905b81548152906001019060200180831161199057829003601f168201915b50505050509350828054600181600116156101000203166002900480601f016020809104026020016040519081016040528092919081815260200182805460018160011615610100020316600290048015611a495780601f10611a1e57610100808354040283529160200191611a49565b820191906000526020600020905b815481529060010190602001808311611a2c57829003601f168201915b505050505092509650965096509650965096509650919395979092949650565b60006040518060e001604052808873ffffffffffffffffffffffffffffffffffffffff16815260200187815260200186815260200185815260200184815260200183815260200160011515815250600460008973ffffffffffffffffffffffffffffffffffffffff1673ffffffffffffffffffffffffffffffffffffffff16815260200190815260200160002060008201518160000160006101000a81548173ffffffffffffffffffffffffffffffffffffffff021916908373ffffffffffffffffffffffffffffffffffffffff1602179055506020820151816001019080519060200190611b599291906130ac565b50604082015181600201556060820151816003019080519060200190611b809291906130ac565b506080820151816004015560a0820151816005019080519060200190611ba79291906130ac565b5060c08201518160060160006101000a81548160ff02191690831515021790555090505060008790806001815401808255809150509060018203906000526020600020016000909192909190916101000a81548173ffffffffffffffffffffffffffffffffffffffff021916908373ffffffffffffffffffffffffffffffffffffffff16021790555050600190509695505050505050565b336005600083815260200190815260200160002060070160006101000a81548173ffffffffffffffffffffffffffffffffffffffff021916908373ffffffffffffffffffffffffffffffffffffffff1602179055506040518060400160405280600781526020017f50656e64696e6700000000000000000000000000000000000000000000000000815250600560008381526020019081526020016000206006019080519060200190611cf392919061312c565b5060016005600083815260200190815260200160002060070160146101000a81548160ff02191690836003811115611d2757fe5b021790555050565b6000606060006060600060606000600460008973ffffffffffffffffffffffffffffffffffffffff1673ffffffffffffffffffffffffffffffffffffffff16815260200190815260200160002060060160009054906101000a900460ff161561217857600460008973ffffffffffffffffffffffffffffffffffffffff1673ffffffffffffffffffffffffffffffffffffffff16815260200190815260200160002060000160009054906101000a900473ffffffffffffffffffffffffffffffffffffffff16600460008a73ffffffffffffffffffffffffffffffffffffffff1673ffffffffffffffffffffffffffffffffffffffff168152602001908152602001600020600101600460008b73ffffffffffffffffffffffffffffffffffffffff1673ffffffffffffffffffffffffffffffffffffffff16815260200190815260200160002060020154600460008c73ffffffffffffffffffffffffffffffffffffffff1673ffffffffffffffffffffffffffffffffffffffff168152602001908152602001600020600301600460008d73ffffffffffffffffffffffffffffffffffffffff1673ffffffffffffffffffffffffffffffffffffffff16815260200190815260200160002060040154600460008e73ffffffffffffffffffffffffffffffffffffffff1673ffffffffffffffffffffffffffffffffffffffff168152602001908152602001600020600501600460008f73ffffffffffffffffffffffffffffffffffffffff1673ffffffffffffffffffffffffffffffffffffffff16815260200190815260200160002060060160009054906101000a900460ff16858054600181600116156101000203166002900480601f0160208091040260200160405190810160405280929190818152602001828054600181600116156101000203166002900480156120265780601f10611ffb57610100808354040283529160200191612026565b820191906000526020600020905b81548152906001019060200180831161200957829003601f168201915b50505050509550838054600181600116156101000203166002900480601f0160208091040260200160405190810160405280929190818152602001828054600181600116156101000203166002900480156120c25780601f10612097576101008083540402835291602001916120c2565b820191906000526020600020905b8154815290600101906020018083116120a557829003601f168201915b50505050509350818054600181600116156101000203166002900480601f01602080910402602001604051908101604052809291908181526020018280546001816001161561010002031660029004801561215e5780601f106121335761010080835404028352916020019161215e565b820191906000526020600020905b81548152906001019060200180831161214157829003601f168201915b505050505091509650965096509650965096509650612179565b5b919395979092949650565b6005600082815260200190815260200160002060070160009054906101000a900473ffffffffffffffffffffffffffffffffffffffff1673ffffffffffffffffffffffffffffffffffffffff163373ffffffffffffffffffffffffffffffffffffffff16146121f257600080fd5b6003808111156121fe57fe5b6005600083815260200190815260200160002060070160149054906101000a900460ff16600381111561222d57fe5b1461223757600080fd5b670de0b6b3a7640000600560008381526020019081526020016000206003015402341461226357600080fd5b6005600082815260200190815260200160002060000160009054906101000a900473ffffffffffffffffffffffffffffffffffffffff1673ffffffffffffffffffffffffffffffffffffffff166108fc670de0b6b3a76400006005600085815260200190815260200160002060030154029081150290604051600060405180830381858888f193505050501580156122ff573d6000803e3d6000fd5b506123406005600083815260200190815260200160002060000160009054906101000a900473ffffffffffffffffffffffffffffffffffffffff1682612ef3565b336005600083815260200190815260200160002060000160006101000a81548173ffffffffffffffffffffffffffffffffffffffff021916908373ffffffffffffffffffffffffffffffffffffffff1602179055506040518060400160405280600c81526020017f4e6f7420417070726f76656400000000000000000000000000000000000000008152506005600083815260200190815260200160002060050190805190602001906123f492919061312c565b506040518060400160405280601d81526020017f4e6f742079657420617070726f7665642062792074686520676f76742e00000081525060056000838152602001908152602001600020600601908051906020019061245492919061312c565b5060006005600083815260200190815260200160002060070160006101000a81548173ffffffffffffffffffffffffffffffffffffffff021916908373ffffffffffffffffffffffffffffffffffffffff16021790555060006005600083815260200190815260200160002060070160146101000a81548160ff021916908360038111156124de57fe5b0217905550600360003373ffffffffffffffffffffffffffffffffffffffff1673ffffffffffffffffffffffffffffffffffffffff16815260200190815260200160002081908060018154018082558091505090600182039060005260206000200160009091929091909150555050565b60056020528060005260406000206000915090508060000160009054906101000a900473ffffffffffffffffffffffffffffffffffffffff1690806001018054600181600116156101000203166002900480601f0160208091040260200160405190810160405280929190818152602001828054600181600116156101000203166002900480156126215780601f106125f657610100808354040283529160200191612621565b820191906000526020600020905b81548152906001019060200180831161260457829003601f168201915b505050505090806002018054600181600116156101000203166002900480601f0160208091040260200160405190810160405280929190818152602001828054600181600116156101000203166002900480156126bf5780601f10612694576101008083540402835291602001916126bf565b820191906000526020600020905b8154815290600101906020018083116126a257829003601f168201915b505050505090806003015490806004015490806005018054600181600116156101000203166002900480601f0160208091040260200160405190810160405280929190818152602001828054600181600116156101000203166002900480156127695780601f1061273e57610100808354040283529160200191612769565b820191906000526020600020905b81548152906001019060200180831161274c57829003601f168201915b505050505090806006018054600181600116156101000203166002900480601f0160208091040260200160405190810160405280929190818152602001828054600181600116156101000203166002900480156128075780601f106127dc57610100808354040283529160200191612807565b820191906000526020600020905b8154815290600101906020018083116127ea57829003601f168201915b5050505050908060070160009054906101000a900473ffffffffffffffffffffffffffffffffffffffff16908060070160149054906101000a900460ff16905089565b600080600090505b600360008473ffffffffffffffffffffffffffffffffffffffff1673ffffffffffffffffffffffffffffffffffffffff1681526020019081526020016000208054905081101561290e5783600360008573ffffffffffffffffffffffffffffffffffffffff1673ffffffffffffffffffffffffffffffffffffffff16815260200190815260200160002082815481106128e757fe5b906000526020600020015414156129015780915050612913565b8080600101915050612852565b809150505b92915050565b60046020528060005260406000206000915090508060000160009054906101000a900473ffffffffffffffffffffffffffffffffffffffff1690806001018054600181600116156101000203166002900480601f0160208091040260200160405190810160405280929190818152602001828054600181600116156101000203166002900480156129eb5780601f106129c0576101008083540402835291602001916129eb565b820191906000526020600020905b8154815290600101906020018083116129ce57829003601f168201915b505050505090806002015490806003018054600181600116156101000203166002900480601f016020809104026020016040519081016040528092919081815260200182805460018160011615610100020316600290048015612a8f5780601f10612a6457610100808354040283529160200191612a8f565b820191906000526020600020905b815481529060010190602001808311612a7257829003601f168201915b505050505090806004015490806005018054600181600116156101000203166002900480601f016020809104026020016040519081016040528092919081815260200182805460018160011615610100020316600290048015612b335780601f10612b0857610100808354040283529160200191612b33565b820191906000526020600020905b815481529060010190602001808311612b1657829003601f168201915b5050505050908060060160009054906101000a900460ff16905087565b60606001805480602002602001604051908101604052809291908181526020018280548015612b9e57602002820191906000526020600020905b815481526020019060010190808311612b8a575b5050505050905090565b3373ffffffffffffffffffffffffffffffffffffffff166005600083815260200190815260200160002060000160009054906101000a900473ffffffffffffffffffffffffffffffffffffffff1673ffffffffffffffffffffffffffffffffffffffff1614612c1657600080fd5b6040518060400160405280600981526020017f417661696c61626c650000000000000000000000000000000000000000000000815250600560008381526020019081526020016000206006019080519060200190612c7592919061312c565b5050565b600082600560008681526020019081526020016000206005019080519060200190612ca592919061312c565b5081600560008681526020019081526020016000206006019080519060200190612cd092919061312c565b50600190509392505050565b3373ffffffffffffffffffffffffffffffffffffffff166005600084815260200190815260200160002060000160009054906101000a900473ffffffffffffffffffffffffffffffffffffffff1673ffffffffffffffffffffffffffffffffffffffff1614612d4a57600080fd5b806005600084815260200190815260200160002060070160146101000a81548160ff02191690836003811115612d7c57fe5b02179055506040518060400160405280600881526020017f417070726f766564000000000000000000000000000000000000000000000000815250600560008481526020019081526020016000206006019080519060200190612de092919061312c565b5060026003811115612dee57fe5b816003811115612dfa57fe5b1415612eef5760006005600084815260200190815260200160002060070160006101000a81548173ffffffffffffffffffffffffffffffffffffffff021916908373ffffffffffffffffffffffffffffffffffffffff16021790555060006005600084815260200190815260200160002060070160146101000a81548160ff02191690836003811115612e8957fe5b02179055506040518060400160405280600981526020017f417661696c61626c650000000000000000000000000000000000000000000000815250600560008481526020019081526020016000206006019080519060200190612eed92919061312c565b505b5050565b6000612eff828461284a565b90506000600360008573ffffffffffffffffffffffffffffffffffffffff1673ffffffffffffffffffffffffffffffffffffffff168152602001908152602001600020805490509050600360008573ffffffffffffffffffffffffffffffffffffffff1673ffffffffffffffffffffffffffffffffffffffff1681526020019081526020016000206001820381548110612f9557fe5b9060005260206000200154600360008673ffffffffffffffffffffffffffffffffffffffff1673ffffffffffffffffffffffffffffffffffffffff1681526020019081526020016000208381548110612fea57fe5b9060005260206000200181905550600360008573ffffffffffffffffffffffffffffffffffffffff1673ffffffffffffffffffffffffffffffffffffffff168152602001908152602001600020600182038154811061304557fe5b9060005260206000200160009055600360008573ffffffffffffffffffffffffffffffffffffffff1673ffffffffffffffffffffffffffffffffffffffff1681526020019081526020016000208054809190600190036130a591906131ac565b5050505050565b828054600181600116156101000203166002900490600052602060002090601f016020900481019282601f106130ed57805160ff191683800117855561311b565b8280016001018555821561311b579182015b8281111561311a5782518255916020019190600101906130ff565b5b50905061312891906131d8565b5090565b828054600181600116156101000203166002900490600052602060002090601f016020900481019282601f1061316d57805160ff191683800117855561319b565b8280016001018555821561319b579182015b8281111561319a57825182559160200191906001019061317f565b5b5090506131a891906131d8565b5090565b8154818355818111156131d3578183600052602060002091820191016131d291906131d8565b5b505050565b6131fa91905b808211156131f65760008160009055506001016131de565b5090565b9056fea265627a7a723158207ab3b8ea2a354eb0e4a3466047765b76dbbf2fe3a7504bdeabd5f6a5b842c0e764736f6c63430005100032",
  "source": "pragma solidity ^0.5.0;\r\n\r\ncontract LandRegistry {\r\n    // struct Task {\r\n    //     uint256 id;\r\n    //     string content;\r\n    //     bool completed;\r\n    // }\r\n    struct user {\r\n        address userid;\r\n        string uname;\r\n        uint256 ucontact;\r\n        string uemail;\r\n        uint256 upostalCode;\r\n        string city;\r\n        bool exist;\r\n    }\r\n    struct landDetails {\r\n        address payable id;\r\n        string ipfsHash;\r\n        string laddress;\r\n        uint256 lamount;\r\n        uint256 key;\r\n        string isGovtApproved;\r\n        string isAvailable;\r\n        address requester;\r\n        reqStatus requestStatus;\r\n    }\r\n\r\n    address[] userarr;\r\n    uint256[] assets;\r\n    address owner;\r\n    enum reqStatus {Default, Pending, Rejected, Approved}\r\n\r\n    constructor() public {\r\n        owner = msg.sender;\r\n    }\r\n\r\n    // struct profiles {\r\n    //     uint256[] assetList;\r\n    // }\r\n\r\n    mapping(address => uint256[]) profile;      // address of user ==> list of land assets he owns\r\n    mapping(address => user) public users;      // address of user ==> details of user.\r\n    mapping(uint256 => landDetails) public land;// key of land     ==> details of land.\r\n\r\n    function addUser(\r\n        address user_address, \r\n        string memory user_name, \r\n        uint256 user_contact, \r\n        string memory user_email,\r\n        uint256 user_postal_code,\r\n        string memory user_city\r\n    ) public returns (bool) {\r\n        users[user_address] = user(\r\n            user_address,\r\n            user_name,\r\n            user_contact,\r\n            user_email,\r\n            user_postal_code,\r\n            user_city,\r\n            true\r\n        );\r\n        userarr.push(user_address);\r\n        return true;\r\n    }\r\n\r\n    function getUser(address user_address)\r\n        public\r\n        view\r\n        returns (\r\n            address,\r\n            string memory,\r\n            uint256,\r\n            string memory,\r\n            uint256,\r\n            string memory,\r\n            bool\r\n        )\r\n    {\r\n        if (users[user_address].exist)\r\n            return (\r\n                users[user_address].userid,\r\n                users[user_address].uname,\r\n                users[user_address].ucontact,\r\n                users[user_address].uemail,\r\n                users[user_address].upostalCode,\r\n                users[user_address].city,\r\n                users[user_address].exist\r\n            );\r\n    }\r\n\r\n    function Registration(\r\n        address payable owner_id,\r\n        string memory _ipfsHash,\r\n        string memory _laddress,\r\n        uint256 _lamount,\r\n        uint256 _key,\r\n        string memory status,\r\n        string memory _isAvailable\r\n    ) public returns (bool) {\r\n        land[_key] = landDetails(\r\n            owner_id,\r\n            _ipfsHash,\r\n            _laddress,\r\n            _lamount,\r\n            _key,\r\n            status,\r\n            _isAvailable,\r\n            0x0000000000000000000000000000000000000000,\r\n            reqStatus.Default\r\n        );\r\n        profile[owner_id].push(_key);\r\n        assets.push(_key);\r\n        return true;\r\n    }\r\n\r\n    function computeId(string memory _laddress, string memory _lamount)\r\n        public\r\n        view\r\n        returns (uint256)\r\n    {\r\n        return\r\n            uint256(keccak256(abi.encodePacked(_laddress, _lamount))) % 10000000000000;\r\n    }\r\n\r\n    function viewAssets() public view returns (uint256[] memory) {\r\n        return (profile[msg.sender]);\r\n    }\r\n\r\n    function Assets() public view returns (uint256[] memory) {\r\n        return assets;\r\n    }\r\n\r\n    function landInfoOwner(uint256 id)\r\n        public\r\n        view\r\n        returns (\r\n            address payable,\r\n            string memory,\r\n            uint256,\r\n            string memory,\r\n            string memory,\r\n            address,\r\n            reqStatus\r\n        )\r\n    {\r\n        return (\r\n            land[id].id,\r\n            land[id].ipfsHash,\r\n            land[id].lamount,\r\n            land[id].isGovtApproved,\r\n            land[id].isAvailable,\r\n            land[id].requester,\r\n            land[id].requestStatus\r\n        );\r\n    }\r\n\r\n    function govtStatus(\r\n        uint256 _id,\r\n        string memory status,\r\n        string memory _isAvailable\r\n    ) public returns (bool) {\r\n        land[_id].isGovtApproved = status;\r\n        land[_id].isAvailable = _isAvailable;\r\n        return true;\r\n    }\r\n\r\n    function makeAvailable(uint256 property) public {\r\n        require(land[property].id == msg.sender);\r\n        land[property].isAvailable = \"Available\";\r\n    }\r\n\r\n    function requstToLandOwner(uint256 id) public {\r\n        land[id].requester = msg.sender;\r\n        land[id].isAvailable = \"Pending\";\r\n        land[id].requestStatus = reqStatus.Pending;\r\n    }\r\n\r\n    function processRequest(uint256 property, reqStatus status) public {\r\n        require(land[property].id == msg.sender);\r\n        land[property].requestStatus = status;\r\n        land[property].isAvailable = \"Approved\";\r\n        if (status == reqStatus.Rejected) {\r\n            land[property].requester = address(0);\r\n            land[property].requestStatus = reqStatus.Default;\r\n            land[property].isAvailable = \"Available\";\r\n        }\r\n    }\r\n\r\n    function buyProperty(uint256 property) public payable {\r\n        require(msg.sender == land[property].requester);\r\n        require(land[property].requestStatus == reqStatus.Approved);\r\n        require(msg.value == (land[property].lamount * 1000000000000000000));\r\n\r\n        land[property].id.transfer(land[property].lamount * 1000000000000000000);\r\n        removeOwnership(land[property].id, property);\r\n        \r\n        land[property].id = msg.sender;\r\n        land[property].isGovtApproved = \"Not Approved\";\r\n        land[property].isAvailable = \"Not yet approved by the govt.\";\r\n        land[property].requester = address(0);\r\n        land[property].requestStatus = reqStatus.Default;\r\n        profile[msg.sender].push(property);\r\n    }\r\n\r\n    function removeOwnership(address previousOwner, uint256 id) private {\r\n        uint256 index = findId(id, previousOwner);\r\n        uint256 len = profile[previousOwner].length;\r\n\r\n        profile[previousOwner][index] = profile[previousOwner][len - 1];\r\n        delete profile[previousOwner][len - 1];\r\n        profile[previousOwner].length--;\r\n    }\r\n\r\n    function findId(uint256 id, address user) public view returns (uint256) {\r\n        uint256 i;\r\n        for (i = 0; i < profile[user].length; i++) {\r\n            if (profile[user][i] == id) return i;\r\n        }\r\n        return i;\r\n    }\r\n}\r\n",
  "sourcePath": "C:\\Users\\sunid\\Documents\\Land-Registry-Blockchain\\contracts\\LandRegistry.sol",
  "compiler": {
    "name": "solc",
    "version": "0.5.16+commit.9c3226ce.Emscripten.clang"
  },
  "schemaVersion": "3.4.7",
  "updatedAt": "2022-05-17T10:54:30.947Z",
  "networkType": "ethereum",
  "devdoc": {
    "methods": {}
  },
  "userdoc": {
    "methods": {}
  }
}